:0E046E00EF1FAC0670011E4C60030080F322ED
:10043200EF1FAC0670011E4C600B007D0B7CBEDC16
:05044200FEDDFC80EB73
:010447002292
:10000300EF1FAC0670011E4C600E7D2B7C067BCB74
:08001300DBFEDCFCDDFA80E8F5
:01001B0022C2
:0704B7000000007F0ADFFED8
:0104BE00221B
:04001C007F50DFFE34
:0100200022BD
:0A04970000007F367EC6DEFEDFFCAB
:0104A1002238
:0A04A20000007FD87E24DEFEDFFCA0
:0104AC00222D
:1003B1002B4D5154545355425245435600224D61E1
:1003C100696E4C616D70537769746368223A0022DB
:1003D10046616E537769746368223A0022416C6109
:0B03E100726D537769746368223A0064
:0C048A0041000030410001304100FC3016
:0E047C0012041B1204485393FB43940480FEA9
:10044800E49000FDF0A3F0FF7EFA900002E4F0A330
:02045800DEFCC8
:01045A00227F
:03002300020026B2
:10002600C0E0C0F0C083C082C0D075D000C000C0A0
:1000360001C002C003C004C005C006C00730990253
:08004600C29920980302028315
:10004E009000FDE0FEA3E0FF9000FFEEF0A3EFF0C6
:10005E00C2982402F58274003EF583E599F0900073
:10006E0002E0B42B109000FEE004F0700F9000FD43
:10007E00E004F080079000FDE4F0A3F09000FFE0B4
:10008E00FEA3E0FFD39400EE64809480500302023E
:10009E008374012FF58274003EF583E0640D6003D6
:1000AE000202839000FFA3E02402F58274003EF565
:0900BE0083E0640A60030202837E
:1000C70090010174FFF0A37403F0A374B1F09001E1
:1000D70001E0F9A3E0FAA3E0900118C9F0A3EAF060
:1000E700A3E9F0A3E4F0A3740CF07B017A00790292
:0D00F70012032AEF3395E04F6003020280F0
:10010400F9900106C9F0A3F0A3E9F0A374FFF0A3EA
:100114007403F0A374BEF0A374FFF0A37403F0A3FC
:1001240074D0F0A374FFF0A37403F0A374DDF09013
:100134000104E4F0A37482F0900104E0FEA3E0FF64
:100144002414F58274003EF583E0640D700302020A
:010154004A60
:1001550074022FF974003EFA7B01900112EBF0A3B3
:10016500EAF0A3E9F0C002C001900109E0F9A3E0BB
:10017500FAA3E0900118C9F0A3EAF0A3E9F0A3E41B
:10018500F0A37411F0D001D00212032AEF3395E0E9
:100195004F7015900104E0FEA3E02413F58274006E
:1001A5003EF583E0900000F090010CE0F9A3E0FA41
:1001B500A3E0900118C9F0A3EAF0A3E9F0A3E4F0E5
:1001C500A3740CF0900112E0FBA3E0FAA3E0F9128E
:1001D500032AEF3395E04F7015900104E0FEA3E08C
:1001E500240EF58274003EF583E0900001F0900145
:1001F5000FE0F9A3E0FAA3E0900118C9F0A3EAF033
:10020500A3E9F0A3E4F0A3740EF0900112E0FBA3C0
:10021500E0FAA3E0F912032AEF3395E04F70159049
:100225000104E0FEA3E02410F58274003EF583E0AE
:040235009000FCF049
:10023900900105E004F07006900104E004F0020169
:100249003C900000E0FFB43104C2808006EFB43076
:1002590002D280900001E0FFB43104C2828006EF2F
:10026900B43002D2829000FCE0FFB43104C2848031
:0702790006EFB43002D2844D
:030280001204481D
:10028300D007D006D005D004D003D002D001D000CF
:0B029300D0D0D082D083D0F0D0E03279
:10041B0053877F759850438E04759CDC438E014344
:07042B008E10D2AFD2AC220B
:0A04AD00C2998F993099FDC299227F
:10045B001203ECFF600C1204AD740129F9E43AFAB3
:03046B0080EE22FE
:0300000002029E5B
:0C029E00787FE4F6D8FD7581070202E5C8
:1003EC00BB010689828A83E0225002E722BBFE020F
:0903FC00E32289828A83E4932242
:10032A00900115EBF0A3EAF0A3E9F0900118E0FBC5
:10033A00A3E0FAA3E0F91203ECFE900115E0FBA397
:10034A00E0FAA3E0F91203ECFF6E702AEF600E9058
:10035A00011B74FFF5F012040545F070037F0022BB
:10036A00900116E475F001120405900119E475F084
:10037A000112040580B5900115E0FBA3E0FAA3E0A1
:10038A00F91203ECFDD3EE6480F8ED648098400323
:10039A007F0122900118E0FBA3E0FAA3E0F912031F
:0703AA00ECFFC3ED9FFF22F1
:1002AA0002047CE493A3F8E493A34003F68001F2EA
:1002BA0008DFF48029E493A3F85407240CC8C33355
:1002CA00C4540F4420C8834004F456800146F6DF24
:1002DA00E4800B010204081020408090048AE47E26
:1002EA00019360BCA3FF543F30E509541FFEE49319
:1002FA00A360010ECF54C025E060A840B8E493A3E0
:10030A00FAE493A3F8E493A3C8C582C8CAC583CA0A
:10031A00F0A3C8C582C8CAC583CADFE9DEE780BEC2
:010496000065
:10040500C5F0F8A3E028F0C5F0F8E5821582700282
:060415001583E038F0221F
:00000001FF
