:0E0B1D00EF1FAC0670011E4C60030080F32237
:100AD100EF1FAC0670011E4C600B007D0B7CBEDC71
:050AE100FEDDFC80EBCE
:010AE60022ED
:10000300EF1FAC0670011E4C600E7D2B7C067BCB74
:08001300DBFEDCFCDDFA80E8F5
:01001B0022C2
:070B88000000007F0ADFFE00
:010B8F002243
:04001C007F50DFFE34
:0100200022BD
:0A0B5D0000007F367EC6DEFEDFFCDE
:010B6700226B
:0A0B680000007FD87E24DEFEDFFCD3
:010B72002260
:040B95005F002000DD
:100A0F007F017E00120003120ABA120B90120961C5
:100A1F008006120837EF60097F017E001200038005
:100A2F00F11209A1120AE712066C7F017E00120073
:030A3F000380DF52
:1008D6007B017A017903120AFB7BFF7A0B79951269
:1008E6000AFB7B017A017909120AFB7BFF7A0B79F5
:1008F60095120AFB7B017A01790F120AFB7BFF7ABC
:100906000B7995120AFB7B017A017915120AFB7B9A
:08091600FF7A0B7997020AFB3E
:03002300020B735A
:0B0B7300309902C299309802C29832FB
:100ABA0053877F759850438E04759CDC438E01439F
:070ACA008E10D2AFD2AC2266
:0A0B7E00C2998F993099FDC29922A7
:100AFB0012027BFF600C120B7E740129F9E43AFAA7
:030B0B0080EE2257
:10058C00C280120B68D28012001C7F507E0030801B
:10059C000AEF1FAC0670011E4C70F3EF4E7005D2C3
:1005AC00807FFF227E007FFA20800AEF1FAC06704E
:1005BC00011E4C70F3EF4E7005D2807FFE227E0040
:1005CC007FFA30800AEF1FAC0670011E4C70F3EFFF
:1005DC004E7005D2807FFD22E4FDFCE4900000F01B
:1005EC00A3F07E007F9620800AEF1FAA0670011EE2
:1005FC004A70F3EF4E7005D2807FFC22E4FEFF3090
:10060C0080080FEF70010E4E70F5900002E025E0AF
:10061C00F0D3EF941EEE648094804003E004F090DD
:10062C000001E004F07006900000E004F09000007F
:10063C00E07004A3E0640870A9900002E0FB74234E
:10064C002DF58274013CF583EBF00DBD00010CED32
:0F065C0064054C708612001C12001CD2807F00B7
:01066B00226C
:100A7500E4FFFEFDFC74232DF58274013CF583E053
:100A85002FFFE43EFE0DBD00010CED64044C70E546
:0C0A9500900127E06F60037FFF227F00CC
:010AA1002232
:1008370012058CEF3395E04F60037FFF22120A7594
:10084700EF3395E04F60037FFE22900125E0FD75B1
:10085700F00A842430900103F0ED75F00A84E5F086
:100867002430A3F0E4A3F0900123E0FD75F00A849F
:100877002430900109F0ED75F00A84E5F02430A3E7
:06088700F0E4A3F0FF22E3
:1003350041542B434950534E54504346473D312C6D
:10034500382C226E7470312E616C6979756E2E634E
:100355006F6D220D0A0041542B4D51545455534590
:10036500524346473D302C312C224E554C4C222CC5
:100375002245535038323636266862777661335ACD
:10038500715A7933222C2245334645364533454447
:1003950045353244313243333446424534393434B9
:1003A5004632454633454632454231433435372298
:1003B5002C302C302C22220D0A0041542B4D515447
:1003C50054434C49454E5449443D302C223032303B
:1003D50032307C7365637572656D6F64653D335C42
:1003E5002C7369676E6D6574686F643D686D6163D4
:1003F500736861317C220D0A0041542B4D515454D0
:10040500434F4E4E3D302C226862777661335A71E8
:100415005A79332E696F742D61732D6D7174742E35
:10042500636E2D7368616E676861692E616C6979A9
:10043500756E63732E636F6D222C313838332C3112
:100445000D0A005C2C5C2248756D69646974795CE1
:10045500223A005C2C5C224C69676874496E7465AD
:100465006E736974795C223A005C2C5C2248756D68
:10047500616E426F6479496E64756374696F6E5C11
:10048500223A007D7D222C312C300D0A0041542B5F
:100495004D5154545055423D302C222F7379732FB2
:1004A5006862777661335A715A79332F45535038DC
:1004B5003236362F7468696E672F6576656E742FD0
:1004C50070726F70657274792F706F7374222C223D
:1004D5007B5C226D6574686F645C223A5C2274688B
:1004E500696E672E6576656E742E70726F706572B3
:1004F50074792E706F73745C225C2C5C227061724F
:10050500616D735C223A7B5C2254656D7065726126
:10051500747572655C223A0000000000000000005E
:1005250000000000000000000000000000000000C6
:1005350000000000000000000000000000000000B6
:1005450000000000000000000000000000000000A6
:100555000000000000000000000000000000000096
:100565000000000000000000000000000000000086
:100575000000000000000000000000000000000076
:07058500000000000000006F
:100961007BFF7A037935120AFB7F027E00120003B6
:100971007BFF7A03795B120AFB7F027E0012000380
:100981007BFF7A0379BF120AFB7F027E001200030C
:100991007BFF7A0379FE120AFB7F027E00020003CD
:10066C0078007C007D017BFF7A0479927E007FFA12
:10067C001202559000FD7401F0A37401F0A37403F1
:10068C00F07B017A0079001207CC9000FD74FFF02A
:10069C00A37404F0A37448F07B017A00790012076C
:1006AC00CC9000FD7401F0A37401F0A37409F07BED
:1006BC00017A0079001207CC9000FD74FFF0A3744E
:1006CC0004F0A37458F07B017A0079001207CC90E7
:1006DC0000FD7401F0A37401F0A3740FF07B017A98
:1006EC000079001207CC9000FD74FFF0A37404F0A5
:1006FC00A3746EF07B017A0079001207CC9000FD98
:10070C007401F0A37401F0A37415F07B017A0079E5
:10071C00001207CC9000FD74FFF0A37404F0A374D6
:10072C0088F07B017A0079001207CC7B017A007982
:0B073C0000120AFB7F017E0002000398
:0F0B0E00D282D281120B88C282120B88C281223E
:0C0B3900C282D281120B88D282020B888B
:0E0B2B00A2009282D281120B88C281020B8836
:0C0B4500D281120B88A282C281020B88B0
:0509DB00900001EFF0A7
:1009E000E4A3F0900002E0C3940874809480501C4B
:1009F000900001E0FF25E0F09282D281120B88C2C4
:0F0A000081120B88900002E004F080D7020B45B2
:10091E00E4900002F0D282900001F0900001E0C35A
:10092E009408748094805025A3E0FF25E0F0D281D6
:10093E00120B88900002E0FFA282E433FEEF4EF02D
:10094E00C281120B88900001E004F080CE9000026C
:02095E00E0FFB8
:010960002274
:100AA200900000EFF0120B0E7FB81209DB900000ED
:080AB200E0FF1209DB020B3921
:050A4200900128EFF017
:100A4700120B0E7FB81209DB900128E0FF1209DBB9
:100A5700120B0E7FB91209DB12091E900129EFF064
:0D0A6700D200120B2B120B39900129E0FF79
:010A7400225F
:10088D00120B0E7FB91209DBE4900000F09000000E
:10089D00E0C3940374809480502912091E900000C7
:1008AD00E0FE241BF582E43401F583EFF0EE6403E2
:1008BD007004D2008002C200120B2B900000E004E5
:0908CD00F080CA120B39020B5D28
:050B90007F01020AA232
:10074700AB07AA067C277D10120294EF2430900194
:100757000FF07C277D10AF03AE02120294AA04AB00
:10076700057C037DE8AF03AE02120294EF2430A3A9
:10077700F07C037DE8AF03AE02120294AA04AB0536
:100787007C007D64AF03AE02120294EF2430A3F025
:100797007C007D64AF03AE02120294AA04AB057C11
:1007A700007D0AAF03AE02120294EF2430A3F07C5F
:1007B700007D0AAF03AE02120294AB05EB2430A30F
:0507C700F0E4A3F022A4
:1009A1007F01120AA27F10120AA27FC87E00120ADA
:1009B100D112088D90011BE0FEA3E07C002400FF12
:1009C100EC3EFEAD07FC1200CB7B9A7A99799978BF
:0A09D1003F1200291201040207473B
:100AE7009001152083057430F080037431F0E49091
:040AF7000116F022D2
:1000260002017AEC5D046005E85904700302017070
:1000360012013B580460F6EC4860F2EC7004FDFED9
:10004600FF22C860DB2481C85009C39860025006AD
:100056000201779850CAF582E9294B4A7005AB82AE
:1000660002016675F0007C1A7880C3EF9BEE9AED6C
:1000760099400DC3EF9BFFEE9AFEED99FDE842F025
:10008600DC23ACF0D0E0FFD0E0FED0E0FDAB822078
:10009600E7101BEB60BAEC2CFCEF33FFEE33FEED02
:1000A60033FD020152E803F830E705C0F075F000B1
:1000B600EF2FFFEE33FEED33FD40B830E7C280AAE6
:1000C60075F020800E75F010800575F0087D007EB5
:1000D600007F003392D530D5031202E9EC3340108D
:1000E600EF33FFEE33FEED33FDEC33FCD5F0ED22BE
:0E00F600E5F0247EA2D513CC92E7CDCEFF22FA
:10010400EDD2E7CD33EC3392D524814006E4FFFEF3
:10011400FDFC22FCE4CFCECDCC24E0501174FF8052
:10012400EDC3CC13CCCD13CDCE13CECF13CF0470EF
:07013400F030D5DE0202E904
:10013B00E9D2E7C933E833F892D5EDD2E7CD33EC0A
:07014B0033FC5002B2D52283
:10015200EC30E7100FBF000C0EBE00080DBD00040E
:100162000BEB6014A2D5EB13FCED92E7FD2274FFBA
:10017200FCFDFEFF22E480F8A2D574FF13FC7D8013
:03018200E480EF27
:03000000020B519F
:0C0B5100787FE4F6D8FD758120020A0FC1
:10018500E709F608DFFA8046E709F208DFFA803E5C
:1001950088828C83E709F0A3DFFA8032E309F60849
:1001A500DFFA8078E309F208DFFA807088828C83B1
:1001B500E309F0A3DFFA806489828A83E0A3F60865
:1001C500DFFA805889828A83E0A3F208DFFA804C3F
:1001D50080D280FA80C680D4806980F28033801016
:1001E50080A680EA809A80A880DA80E280CA80337F
:1001F50089828A83ECFAE493A3C8C582C8CCC583F7
:10020500CCF0A3C8C582C8CCC583CCDFE9DEE780C6
:100215000D89828A83E493A3F608DFF9ECFAA9F045
:10022500EDFB2289828A83ECFAE0A3C8C582C8CC9B
:10023500C583CCF0A3C8C582C8CCC583CCDFEADEB4
:10024500E880DB89828A83E493A3F208DFF980CC16
:1002550088F0EF60010E4E60C388F0ED2402B4040F
:100265000050B9F582EB2402B4040050AF232345B6
:0602750082239001D57305
:10027B00BB010689828A83E0225002E722BBFE0281
:09028B00E32289828A83E49322B4
:10029400BC000BBE0029EF8DF084FFADF022E4CC4E
:1002A400F875F008EF2FFFEE33FEEC33FCEE9DEC17
:1002B400984005FCEE9DFE0FD5F0E9E4CEFD22ED5D
:1002C400F8F5F0EE8420D21CFEADF075F008EF2FA7
:1002D400FFED33FD4007985006D5F0F222C398FD98
:0502E4000FD5F0EA2235
:0E02E900C3E49FFFE49EFEE49DFDE49CFC2226
:1007CC009000FAEBF0A3EAF0A3E9F0900100EBF053
:1007DC00A3EAF0A3E9F09000FAE0FBA3E475F001C2
:1007EC0012031FA9F0FA12027B70EB9000FB74FF4E
:1007FC00F5F01203099000FDE0FBA3E475F0011283
:10080C00031FA9F0FA12027BFF9000FAE0FBA3E4AD
:10081C0075F00112031FA9F0FAEF1202F770D690CF
:0B082C000100E0FBA3E0FAA3E0F922CA
:1002F700BB010689828A83F0225002F722BBFE01E6
:02030700F322DF
:10030900C5F0F8A3E028F0C5F0F8E582158270027F
:060319001583E038F0221C
:10031F00A3F8E0C5F025F0F0E58215827002158391
:06032F00E0C838F0E822EE
:00000001FF
